:020000040800F2
:100000000050002021020008290200082D020008EB
:10001000A1020008A5020008ED020008000000008F
:100020000000000000000000000000003503000890
:1000300039030008000000003D0300087133000888
:100040005103000851030008510300085103000840
:100050005103000851030008510300085103000830
:100060005103000851030008510300085103000820
:100070005103000851030008510300085103000810
:100080005103000851030008510300085103000800
:1000900051030008510300085103000851030008F0
:1000A00051030008510300085103000851030008E0
:1000B00051030008392C00085103000851030008BF
:1000C00051030008510300085103000851030008C0
:1000D00051030008510300085103000851030008B0
:1000E00051030008510300085103000800000000FC
:1000F0000000000000000000000000000000000000
:1001000000000000000000005FF808F100B583B0B7
:1001100001F070FD304B314A1360314A1360314BAE
:10012000314A03E011681960043304322F498B42CD
:10013000F8D32A4B1A682E4B9A4204D1284B1A68DE
:100140002C4B9A4200D0FEE7234B2B4A13602B4ADC
:1001500013602B4B02E000221A600433294A9342B9
:10016000F9D3254B1B6813B9244B1B6803B1FEE779
:1001700001F04CFD694601A801F0CCFC224C234B58
:100180001C1BA410002504E01F4B53F82530984792
:100190000135AC42F8DC1E4C1E4B1C1BA410002584
:1001A00004E01B4B53F8253098470135AC42F8DC8E
:1001B0000099019802F0A8FD0546174C174B1C1B2F
:1001C000A41004E0013C144B53F824309847002C51
:1001D000F8DC284601F070FCBABADECA0000002044
:1001E000BC00002000000020AC750008C00000200A
:1001F0007856341232547698C000002088080020C7
:10020000C00000208C0800207C0300087C0300084C
:100210007C0300087C0300087C0300087C030008C2
:1002200008B5FFF773FF00BF00BEFEE71EF0040F26
:100230000CBFEFF30880EFF309807146414A104785
:100240002DE9F04182B004468846134B5E6B9F6BEC
:100250009D6A1B6B13F0020F0DD00F4BDB6A002B56
:1002600009DA4BF6AB6101F04DFD20B14FF00042D1
:10027000094BDA620CE0094801F05EFCCDF8008021
:100280003B4632462946204601F0C4FC00BEFEE74C
:1002900002B0BDE8F08100BF00ED00E0C85D0008DD
:1002A00000BEFEE71EF0040F0CBFEFF30880EFF373
:1002B00009807146244A10472DE9F04182B0044676
:1002C0008846084B5E6B9F6B9D6A074801F034FCC3
:1002D000CDF800803B4632462946204601F09AFC84
:1002E00000BEFEE700ED00E0D85D00081EF0040F40
:1002F0000CBFEFF30880EFF309807146134A1047F3
:100300002DE9F04182B004468846084B5E6B9F6B36
:100310009D6A074801F010FCCDF800803B4632464C
:100320002946204601F076FC00BEFEE700ED00E025
:10033000E45D000800BEFEE700BEFEE700BEFEE78B
:100340007047000041020008B902000801030008DC
:0403500000BEFEE706
:10035400AC75000800000020C0000020AC75000847
:100364000000000000000000C00000208C080020F5
:08037400000000000000000081
:1003800010B50446B0F5E06F0FD0B0F5C06F0CD0DB
:10039000B0F5A06F09D0B0F5806F06D0B0F5407F02
:1003A00003D06321044801F0BDFB44F0BF6444F472
:1003B0000034024BDC6010BDB05A000800ED00E0D4
:1003C00010B50446C378012B03D975211F4801F0ED
:1003D000A9FB63780F2B03D976211C4801F0A2FBFF
:1003E000A3780F2B03D97721184801F09BFBE37802
:1003F000FBB1174BDB68DB43C3F30223C3F10401FA
:100400000F22DA40637803FA01F1A37813400B431B
:100410001B012278DBB20F490A4482F800332378AB
:10042000580903F01F03012202FA03F341F82030B8
:1004300010BD23785A0903F01F03012101FA03F3C9
:100440002032044941F8223010BD00BFB05A0008E4
:1004500000ED00E000E100E010B504461C4B9842BE
:100460000BD003F58063984207D003F5A053984260
:1004700003D0BC21174801F055FB154B9C420AD113
:1004800001214FF4007000F097FF00214FF400703D
:1004900000F092FF10BD104B9C420AD101214FF495
:1004A000806000F089FF00214FF4806000F084FF3D
:1004B00010BD0A4B9C4209D101214FF4004000F0CD
:1004C0007BFF00214FF4004000F076FF10BD00BF1D
:1004D00000240140D85A000800280140003C014097
:1004E00038B505460C464D4B98420BD003F580635A
:1004F000984207D003F5A053984203D0E52148481D
:1005000001F010FB2368F3B1B3F5803F1BD0B3F5C6
:10051000003F18D0B3F5403F15D0B3F5802F12D06F
:10052000B3F5A02F0FD0B3F5C02F0CD0B3F5E02F4B
:1005300009D0B3F5002F06D0B3F5102F03D0E62174
:10054000374801F0EFFA2379012B03D9E72134482A
:1005500001F0E8FA6379012B03D9E821304801F072
:10056000E1FAA36843B3B3F5003F25D0B3F5802F7C
:1005700022D0B3F5C02F1FD0B3F5002F1CD0B3F598
:10058000202F19D0B3F5402F16D0B3F5602F13D01C
:1005900093B1B3F5003F0FD0B3F5C02F0CD0B3F536
:1005A000002F09D0B3F5202F06D0B3F5402F03D08C
:1005B000E9211B4801F0B6FAE36833B1B3F5006FE7
:1005C00003D0EA21164801F0ADFA237C013BDBB2EF
:1005D0000F2B03D9EB21124801F0A4FA6B6823F426
:1005E000702222F480722368217943EA01231343A5
:1005F0006B60AB680B491940E268A3681A436379E2
:1006000042EA43030B43AB60EB6A23F47002237CA2
:10061000013BDBB242EA0353EB6238BD00240140E8
:10062000D85A0008FDF7F1FF38B504460D46114BC6
:1006300098420CD003F58063984208D003F5A0538C
:10064000984204D04FF49A710B4801F06BFA012DD7
:1006500004D940F23511084801F064FA25B1A368C5
:1006600043F00103A36038BDA36823F00103A36036
:1006700038BD00BF00240140D85A000810B5044618
:100680000A4B98420CD003F58063984208D003F5DA
:10069000A053984204D04FF4C271054801F042FAC9
:1006A000A36843F00803A36010BD00BF002401400D
:1006B000D85A000810B504460B4B98420CD003F5ED
:1006C0008063984208D003F5A053984204D04FF4B9
:1006D000C971064801F026FAA36813F0080F01D08B
:1006E000012010BD002010BD00240140D85A000890
:1006F00010B504460A4B98420CD003F5806398422B
:1007000008D003F5A053984204D04FF4D5710548A2
:1007100001F008FAA36843F00403A36010BD00BF12
:1007200000240140D85A000810B504460B4B9842EB
:100730000CD003F58063984208D003F5A05398428B
:1007400004D04FF4DC71064801F0ECF9A36813F013
:10075000040F01D0012010BD002010BD0024014075
:10076000D85A000838B504460D46114B98420CD0B3
:1007700003F58063984208D003F5A053984204D053
:100780004FF4E9710B4801F0CDF9012D04D940F285
:10079000D311084801F0C6F925B1A36843F4A003BA
:1007A000A36038BDA36823F4A003A36038BD00BFD5
:1007B00000240140D85A0008F8B505460E461446F4
:1007C0001F46364B98420CD003F58063984208D000
:1007D00003F5A053984204D04FF41671304801F04D
:1007E000A1F9112E04D940F259212D4801F09AF9AE
:1007F000631EDBB20F2B04D940F25A21284801F0C6
:1008000091F9072F04D940F25B21254801F08AF9BC
:10081000092E0CD9E968A6F10A0303EB430307226A
:100820009A4021EA02029F401743EF6009E02A69DB
:1008300006EB460107238B4022EA03038F401F4348
:100840002F61062C0CD86B6B013C04EB84041F2138
:10085000A14023EA010106FA04F40C436C63F8BDDD
:100860000C2C0CD82B6B073C04EB84041F21A140FB
:1008700023EA010106FA04F421432963F8BDEB6A77
:10088000A4F10D0101EB81011F248C4023EA040433
:1008900006FA01F10C43EC62F8BD00BF00240140F0
:1008A000D85A000810B50446094B98420CD003F5FD
:1008B0008063984208D003F5A053984204D040F2D8
:1008C000CD21044801F02EF9E06C80B210BD00BFCC
:1008D00000240140D85A000838B505460C46134B91
:1008E00098420CD003F58063984208D003F5A053DA
:1008F000984204D040F2B5410D4801F013F9631E4F
:10090000DBB2012B0AD9042C08D0082C06D0102CFD
:1009100004D040F2B641064801F004F92B681C42AD
:1009200001D0012038BD002038BD00BF00240140A7
:10093000D85A0008F8B505460C46464B98421BD0DD
:1009400003F58063984217D003F58063984213D073
:1009500003F5806398420FD003F5806398420BD073
:1009600003F58063984207D003F58063984203D073
:10097000B221394801F0D6F8E3788BB1042B0FD0BF
:10098000282B0DD0482B0BD0142B09D0102B07D0BF
:100990001C2B05D0182B03D0B3212F4801F0C2F82F
:1009A00023881BB9B4212C4801F0BCF8E37803F08C
:1009B0000F06304613F0100F0AD0A378013BDBB2CC
:1009C000022B03D9BB21244801F0ACF8A0783043B6
:1009D0002378E3B12E68002316E001229A40218893
:1009E00032EA01010FD199000F278F4026EA07064E
:1009F00000FA01F10E43E178282901D16A6102E091
:100A0000482900D12A610133072BE6D92E602388BB
:100A1000FF2B1ED96E68002318E003F108010122A4
:100A20008A40218832EA01010FD199000F278F40B7
:100A300026EA070600FA01F10E43E178282900D1E1
:100A40006A61E178482900D12A610133072BE4D992
:100A50006E60F8BD00080140085B000838B5044628
:100A60000D46144B98421CD003F58063984218D071
:100A700003F58063984214D003F58063984210D048
:100A800003F5806398420CD003F58063984208D048
:100A900003F58063984204D040F26911064801F0E2
:100AA00041F825B94FF4B571034801F03BF82561D1
:100AB00038BD00BF00080140085B000838B5044697
:100AC0000D46144B98421CD003F58063984218D011
:100AD00003F58063984214D003F58063984210D0E8
:100AE00003F5806398420CD003F58063984208D0E8
:100AF00003F58063984204D040F27911064801F072
:100B000011F825B94FF4BD71034801F00BF8656188
:100B100038BD00BF00080140085B000838B5044636
:100B20000D46431E012B40F29080042800F08D807A
:100B3000082800F08A80634B984200F086802033BA
:100B4000984200F08280604B98427ED08033984279
:100B50007BD05E4B984278D003F58073984274D076
:100B600003F58073984270D0594B98426DD003F5CD
:100B70008063984269D0B0F5805F66D0B0F5EA1F17
:100B800063D0B0F5EB1F60D0B0F5004F5DD0514B96
:100B900098425AD00133984257D00233984254D0E9
:100BA0000433984251D0083398424ED0B0F1201F00
:100BB0004BD03033984248D0474B984245D003F54C
:100BC0008073984241D003F5007398423DD0434B67
:100BD00098423AD003F57063984236D0B0F5011FC1
:100BE00033D03F4B984230D0013398422DD002335E
:100BF00098422AD00433984227D00833984224D010
:100C00001033984221D0203398421ED0403398426E
:100C10001BD08033984218D003F58073984214D0CB
:100C200003F50073984210D003F5806398420CD00E
:100C300003F50063984208D003F58053984204D02E
:100C400040F22A21274800F06DFF012D04D940F21F
:100C50002B21244800F066FF002C02DA224BDB69CE
:100C600001E0214B5B68C4F30340A2B204F44011DD
:100C7000B1F5401F07D123F070631B48416821F094
:100C80007061416011E014F4801F06D0032181409F
:100C900023EA010343F0706307E0610D090102FAE2
:100CA00001F123EA010343F070631DB1610D0901F5
:100CB0008A401343002C02DA0B4AD36138BD0A4A3A
:100CC000536038BD100014004000160000011800E9
:100CD00000081A000100200000013000001120006F
:100CE00001000080085B000800000140F0B587B0FB
:100CF00004460D46544B984207D003F58063984252
:100D000003D0C621514800F00DFF2B68013B504A2B
:100D1000934203D9C7214D4800F004FFAB883BB193
:100D2000022B05D00A2B03D0C821484800F0FAFE58
:100D3000EB88B3F5804F07D04BF6FF72934203D098
:100D4000C921424800F0EEFE2B89B3F5806F03D332
:100D5000CA213E4800F0E6FE6B89B3F5806F04D0EF
:100D60001BB1CB21394800F0DDFEAB89B3F5804FD4
:100D700006D0B3F5404F03D0CC21344800F0D2FE6A
:100D8000A688B6B226F03F06B6B201A800F066FA11
:100D900003983049A1FB0031890C8FB23E43A680F5
:100DA000228892B222F0010292B222802B682A4A53
:100DB000934209D85B00B0FBF3F39BB2032B00D83E
:100DC00004230137278427E0EE884BF6FF72964212
:100DD00005D103EB4302B0FBF2F39BB208E003EB57
:100DE000830303EB8303B0FBF3F39BB243F4804331
:100DF000C3F30B020AB943F0010343F400434FF479
:100E0000967201FB02F1154A82FB0102C917C1EB80
:100E1000A211013189B22184A38323889BB243F0BC
:100E20000103238023889BB223F4816323F0020310
:100E3000A9886A890A4313432380AA892B8913430B
:100E4000238107B0F0BD00BF005400403C5B0008A8
:100E50007F1A060083DE1B43A0860100D34D62107B
:100E600038B504460D46104B984208D003F5806310
:100E7000984204D04FF4A9710C4800F053FE012DA4
:100E800004D940F25311094800F04CFE2DB12388DB
:100E90009BB243F00103238038BD23889BB223F02B
:100EA00001039BB2238038BD005400403C5B000826
:100EB00038B504460D46104B984208D003F58063C0
:100EC000984204D04FF4CD710C4800F02BFE012D58
:100ED00004D940F29B11094800F024FE2DB123886B
:100EE0009BB243F48073238038BD23889BB223F4E4
:100EF00080739BB2238038BD005400403C5B0008E7
:100F000038B504460D46104B984208D003F580636F
:100F1000984204D04FF4D9710C4800F003FE012D23
:100F200004D940F2B311094800F0FCFD2DB123882B
:100F30009BB243F40073238038BD23889BB223F413
:100F400000739BB2238038BD005400403C5B000816
:100F500038B504460D46104B984208D003F580631F
:100F6000984204D04FF4E5710C4800F0DBFD012DF0
:100F700004D940F2CB11094800F0D4FD2DB12388EB
:100F80009BB243F48063238038BD23889BB223F453
:100F900080639BB2238038BD005400403C5B000856
:100FA00038B505460C46074B984208D003F58063D8
:100FB000984204D040F25521034800F0B3FDA4B29A
:100FC0002C8238BD005400403C5B000810B504463C
:100FD000074B984208D003F58063984204D040F252
:100FE0006221044800F09EFD208AC0B210BD00BFFF
:100FF000005400403C5B000870B505460C461646A0
:101000000D4B984208D003F58063984204D04FF40A
:101010001D710A4800F086FD012E04D940F27521A9
:10102000064800F07FFD16B144F0010401E004F031
:10103000FE04A4B22C8270BD005400403C5B00084A
:1010400038B505460C462F4B984208D003F580630F
:10105000984204D04FF487612B4800F063FD2B4B7E
:101060009C4240D0B4F1021F3DD0294B9C423AD063
:10107000B4F5020F37D0B4F5901F34D0254B9C4205
:1010800031D003F500039C422DD0A3F5E0039C4230
:1010900029D0214B9C4226D003F500039C4222D04C
:1010A000A3F5E0039C421ED0102C1CD01B4B9C428D
:1010B00019D01B4B9C4216D01A4B9C4213D03E3386
:1010C0009C4210D0184B9C420DD0043B9C420AD04D
:1010D000164B9C4207D0B4F5806F04D040F23941E2
:1010E000094800F01FFDAB8A9BB22A8B43EA0243FA
:1010F00023F07F4334EA030301D1012038BD0020EF
:1011000038BD00BF005400403C5B00088200060070
:1011100080008600400002008400060001000300F9
:10112000820007000200030084000700080003009B
:1011300030B583B005460C46002301930093364B2F
:10114000984208D003F58063984204D040F29E4153
:10115000324800F0E7FCB4F5000F45D0B4F5800F3D
:1011600042D0B4F5001F3FD0B4F5801F3CD0B4F599
:10117000802F39D0B4F5003F36D0B4F5803F33D05E
:10118000274B9C4230D0A3F580439C422CD0B4F135
:10119000102F29D0A3F560539C4225D0A3F580637E
:1011A0009C4221D0A3F500739C421DD0A3F580730F
:1011B0009C4219D0803B9C4216D0403B9C4213D0AD
:1011C000303B9C4210D0083B9C420DD0043B9C42DB
:1011D0000AD0023B9C4207D0013B9C4204D040F223
:1011E0009F410E4800F09EFC0095230F019324F0D0
:1011F0007F44019B1BB1009B1433009303E0240C3C
:10120000009B18330093009B1B681C4201D00120F7
:1012100000E0002003B030BD005400403C5B0008FB
:101220000080001010B5044668B1B0F5804F0AD0B8
:10123000B0F5004F07D0B0F5404F04D040F2023176
:10124000044800F06FFC044B586820F440402043F1
:10125000586010BD6C5B00080010024010B4294BB0
:101260005B6803F00C03042B05D0082B06D013BBDE
:10127000254B036021E0254B03601EE0214A5368A3
:101280005268C3F38343023312F4803F04D1204AEF
:1012900002FB03F3036010E01A4A526812F4003FA5
:1012A00004D01C4A02FB03F3036006E0174A02FB6A
:1012B00003F3036001E0144B036012494B68C3F36E
:1012C0000313154CE35CDAB20368D34043604A6809
:1012D000C2F30222A25CD2B223FA02F282604A680E
:1012E000C2F3C222A25CD2B2D340C3604A68C2F346
:1012F00081320A498A5CD2B2B3FBF2F3036110BCBB
:10130000704700BF0010024000127A0000A24A0499
:1013100000093D00005125020800002004000020C3
:1013200038B504460D460E4B034003B920B940F2D0
:101330004A410C4800F0F6FB012D04D940F24B4124
:10134000084800F0EFFB25B1074A93691C439461FC
:1013500038BD054A936923EA0404946138BD00BF8F
:101360000200C0FF6C5B00080010024038B5044664
:101370000D460E4B184200D120B940F269410C488D
:1013800000F0D0FB012D04D940F26A41084800F07A
:10139000C9FB25B1074AD3691C43D46138BD054A4E
:1013A000D36923EA0404D46138BD00BF003601814B
:1013B0006C5B00080010024038B504460D460E4B29
:1013C000034003B920B940F2A4410C4800F0AAFB45
:1013D000012D04D940F2A541084800F0A3FB25B136
:1013E000074AD3681C43D46038BD054AD36823EA52
:1013F0000404D46038BD00BF0200C0FF6C5B00086D
:101400000010024038B504460D46524B984242D077
:10141000B0F1804F3FD0A3F5943398423BD003F511
:101420008063984237D003F58063984233D003F548
:10143000806398422FD003F5806398422BD003F548
:101440009033984227D003F5C053984223D003F538
:10145000806398421FD003F5806398421BD0A3F5A8
:101460009E33984217D003F58063984213D003F55A
:10147000806398420FD003F5903398420BD003F568
:101480008063984207D003F58063984203D0E72138
:10149000314800F047FB6B885BB1102B09D0202B43
:1014A00007D0402B05D0602B03D0E8212A4800F05C
:1014B00039FBEB884BB1B3F5807F06D0B3F5007FE5
:1014C00003D0E921244800F02DFB23889BB2214A58
:1014D000944212D002F5006294420ED0B4F1804FD3
:1014E0000BD0A2F59832944207D002F58062944264
:1014F00003D002F58062944203D123F070036A881E
:101500001343164A944208D002F58062944204D0F4
:1015100023F440739BB2EA8813432380AB88A385EE
:101520002B8823850B4B9C420FD003F500639C4214
:101530000BD003F540639C4207D003F580639C42C7
:1015400003D003F580639C4201D12B7A23860123CB
:10155000A38238BD002C01409C5B000800100040B5
:1015600038B504460D462E4B984243D0B0F1804F1B
:1015700040D0A3F5943398423CD003F58063984261
:1015800038D003F58063984234D003F580639842E5
:1015900030D003F5806398422CD003F59033984205
:1015A00028D003F5C053984224D003F580639842B5
:1015B00020D003F5806398421CD0A3F59E33984257
:1015C00018D003F58063984214D003F580639842E5
:1015D00010D003F5903398420CD003F58063984205
:1015E00008D003F58063984204D040F229310D48B9
:1015F00000F098FA012D04D940F22A31094800F090
:1016000091FA2DB123889BB243F00103238038BDAA
:1016100023889BB223F001039BB2238038BD00BF17
:10162000002C01409C5B000870B504460D46164630
:10163000314B984243D0B0F1804F40D0A3F5943362
:1016400098423CD003F58063984238D003F580631C
:10165000984234D003F58063984230D003F580631C
:1016600098422CD003F59033984228D003F5C0530C
:10167000984224D003F58063984220D003F580631C
:1016800098421CD0A3F59E33984218D003F580638E
:10169000984214D003F58063984210D003F590333C
:1016A00098420CD003F58063984208D003F580631C
:1016B000984204D040F26B31104800F033FA15F430
:1016C0007F4F00D125B94FF45B710C4800F02AFA26
:1016D000012E04D940F26D31084800F023FA26B1FA
:1016E000A3899BB21D43A58170BDA389ED43ADB213
:1016F0001D40A58170BD00BF002C01409C5B00080F
:1017000038B504460D462A4B984243D0B0F1804F7D
:1017100040D0A3F5943398423CD003F580639842BF
:1017200038D003F58063984234D003F58063984243
:1017300030D003F5806398422CD003F59033984263
:1017400028D003F5C053984224D003F58063984213
:1017500020D003F5806398421CD0A3F59E339842B5
:1017600018D003F58063984214D003F58063984243
:1017700010D003F5903398420CD003F58063984263
:1017800008D003F58063984204D040F682210948CE
:1017900000F0C8F915F47F4F00D125B940F6832138
:1017A000044800F0BFF9ED43ADB2258238BD00BF5B
:1017B000002C01409C5B000830B587B004460D4604
:1017C000644B984213D0A3F5744398420FD003F5AD
:1017D000806398420BD003F58063984207D003F5ED
:1017E0008063984203D0B8215B4800F09BF92B68D6
:1017F000013B5A4A934203D9B921574800F092F964
:10180000AB8833B1B3F5805F03D0BA21524800F002
:1018100089F9EB8863B1B3F5805F09D0B3F5005F58
:1018200006D0B3F5405F03D0BB214B4800F07AF9F6
:101830002B894BB1B3F5806F06D0B3F5C06F03D0E1
:10184000BC21454800F06EF96A8922F00C039BB276
:1018500003B91AB9BD21404800F064F9AB8963B1FE
:10186000B3F5807F09D0B3F5007F06D0B3F5407F94
:1018700003D0BE21384800F055F9AB8973B1354B20
:101880009C420BD0A3F574439C4207D003F58063C0
:101890009C4203D0C221304800F044F9238A9BB215
:1018A000EA8823F4405313432382A3899BB2AA8876
:1018B000298968890A43024323F4B05323F00C03B7
:1018C0001343A381A38A9BB2AA8923F440731343D1
:1018D000A38201A8FFF7C2FC1E4B9C4201D1049ACF
:1018E00000E0039AA38913F4004F08D002EB8202B0
:1018F00002EB820229684900B2FBF1F107E002EB3A
:10190000820202EB820229688900B2FBF1F1144BDA
:10191000A3FB01235B091B011A09642000FB1212BF
:10192000A18911F4004F08D0D20032320C49A1FB3A
:101930000212C2F342121A4307E01201323208497E
:10194000A1FB0212C2F343121A4392B2228107B0E2
:1019500030BD00BF00380140CC5B00081FAA440026
:101960001F85EB5138B504460D46164B984214D0EE
:10197000A3F57443984210D003F5806398420CD0CD
:1019800003F58063984208D003F58063984204D041
:101990004FF4B1710C4800F0C5F8012D04D940F2A4
:1019A0006311094800F0BEF82DB1A3899BB243F43E
:1019B0000053A38138BDA3899BB223F400539BB28B
:1019C000A38138BD00380140CC5B000870B50446E7
:1019D0000D461646364B984214D0A3F574439842F0
:1019E00010D003F5806398420CD003F580639842D1
:1019F00008D003F58063984204D040F289112D4845
:101A000000F090F8282D1ED040F227739D421AD086
:101A100040F226639D4216D040F225539D4212D0DB
:101A200040F224439D420ED040F646039D420AD028
:101A300040F66A139D4206D0602D04D04FF4C57164
:101A40001C4800F06FF8012E04D940F28B111948A0
:101A500000F068F840F66A139D420FD1144B9C4287
:101A60000CD0A3F574439C4208D003F580639C42DC
:101A700004D040F28F110F4800F054F8C5F3421221
:101A800005F01F05012303FA05F59A4201D10C3434
:101A900004E0022A01D1103400E014341EB123689E
:101AA0001D43256070BD236823EA0505256070BDD0
:101AB00000380140CC5B0008FEE700BF08B50348D2
:101AC00000F052F80120FFF7F7FF00BF005C0008AC
:101AD00008B50D4B1B6813B90C4A0B4B1A600A4B27
:101AE0001A68C31C23F00303134409498B4206D927
:101AF00003F084FB0C2303604FF0FF3008BD024964
:101B00000B60104608BD00BFC40000208C080020F8
:101B1000004C002001230360014B0B60704700BFA5
:101B20001800002008B50A460146024800F004F8F3
:101B3000FFF7C4FF545C00080FB400B583B004ABDA
:101B400053F8042B01938021064803F099FB0028E9
:101B500003DD0146034800F049F803B05DF804EBEB
:101B600004B07047CC00002010B5044603F054FBCD
:101B70000146204600F03AF80121024800F036F80C
:101B800010BD00BF445D00082DE9F04385B0044658
:101B90000F46435613BB042528462146ABBE0446D8
:101BA0001FE03546102E28BF1025002306E014F94B
:101BB000011B04AA1A4402F8101C0133AB42F6D3ED
:101BC00004AA1344002203F8102CE9464FF004083D
:101BD00040464946ABBE8046761B00E00E46002ECE
:101BE000DFD1384605B0BDE8F08300BF08B5FFF788
:101BF000CBFF08BD08B500F0FBF8024B024A9A6023
:101C000008BD00BF00ED00E00000000808B500F0CE
:101C100017F908BDF8B504460D4617461E46264876
:101C2000FFF78AFF21682548FFF786FF616824488F
:101C3000FFF782FFA1682348FFF77EFFE168224893
:101C4000FFF77AFF21692148FFF776FF6169204895
:101C5000FFF772FFA1691F48FFF76EFFE1691E4899
:101C6000FFF76AFF1D48FFF767FF29461C48FFF78B
:101C700063FF1C4CE16A1C48FFF75EFF216B1B48A9
:101C8000FFF75AFFE16B1A48FFF756FF15F0800F78
:101C900003D039461748FFF74FFF15F4004F03D024
:101CA00031461548FFF748FF1448FFF745FF0699EE
:101CB0001348FFF741FFF8BDAC5C0008BC5C0008AE
:101CC000CC5C0008DC5C0008EC5C0008FC5C0008F4
:101CD0000C5D00081C5D00082C5D00083C5D0008E0
:101CE000485D000800ED00E0585D0008685D0008F0
:101CF000785D0008885D0008985D0008A85D000810
:101D0000B05D000883691A888A4207D10268033AE5
:101D1000012A05D8023383610120704700207047F3
:101D20000020704782B00023019300932C4A13686F
:101D300043F4803313602A4B1B6803F40033009391
:101D4000019B01330193009B1BB9019BB3F5A06F6D
:101D5000F1D1234B1B6813F4003F02D00123009301
:101D600001E000230093009B012B36D11D4B1A6824
:101D700042F010021A601A6822F003021A601A6810
:101D800042F002021A60A3F580535A685A605A68FA
:101D90005A605A6842F480625A605A6822F47C128F
:101DA0005A605A6842F4E8125A601A6842F0807227
:101DB0001A600B4B1B6813F0007FFAD0084B5A686F
:101DC00022F003025A605A6842F002025A60044B41
:101DD0005B6803F00C03082BF9D102B0704700BF19
:101DE000001002400020024008B5FFF79BFF08BD2D
:101DF00008B5104B1A6842F001021A6059680E4A81
:101E00000A405A601A6822F0847222F480321A6002
:101E10001A6822F480221A605A6822F4FE025A607C
:101E20004FF41F029A60FFF7DFFF4FF00062034B91
:101E30009A6008BD001002400000FFF800ED00E0CD
:101E40001F4B5B6803F00C03042B06D0082B08D053
:101E50003BBB1C4A1C4B1A6026E01C4A1A4B1A60FA
:101E600022E0174A53685268C3F38343023312F4E3
:101E7000803F05D1164A02FB03F3134A136013E0B7
:101E80000F4A526812F4003F05D0124A02FB03F3D6
:101E90000D4A136008E00D4A02FB03F30A4A13607F
:101EA00002E0084A084B1A60054B5B68C3F3031352
:101EB000094AD35CDAB204490B68D3400B6070471F
:101EC0000010024000127A003000002000A24A04F4
:101ED00000093D00005125022000002008B500F057
:101EE0009DF808BD030903EB83035A00D2B200F04A
:101EF0000F001044C0B2704700B583B00DF1070267
:101F00000021682000F03CF99DF80700FFF7EAFF88
:101F100003B05DF804FB00BF00B583B00DF107020C
:101F20000121682000F02CF99DF80700FFF7DAFF87
:101F300003B05DF804FB00BF00B583B00DF10702EC
:101F40000221682000F01CF99DF8070000F03F0016
:101F5000FFF7C8FF03B05DF804FB00BF70B506468D
:101F60000D461446FFF7E8FF3070FFF7D5FF2870E5
:101F7000FFF7C2FF207070BD00B583B00DF10702FE
:101F80000321682000F0FCF89DF80700FFF7AAFF86
:101F900003B05DF804FB00BF00B583B00DF107028C
:101FA0000421682000F0ECF89DF80700FFF79AFF85
:101FB00003B05DF804FB00BF00B583B00DF107026C
:101FC0000521682000F0DCF89DF80700FFF78AFF84
:101FD00003B05DF804FB00BF00B583B00DF107024C
:101FE0000621682000F0CCF89DF80700FFF77AFF83
:101FF00003B05DF804FB00BFF8B507460E46154672
:102000001C46FFF7B9FF3870FFF7C6FF3070FFF7C7
:10201000D3FF2870FFF7E0FF2070F8BD10B586B041
:1020200001214FF48000FFF7A1F9174B0293002321
:10203000ADF80C304BF6FF72ADF80E20ADF8103055
:10204000ADF812304FF48043ADF814300F4C02A9B4
:102050002046FEF74BFE01212046FEF701FF01213D
:102060000820FFF75DF94FF44063ADF804301C23FE
:102070008DF8073003238DF8063001A90448FEF7D8
:1020800059FC06B010BD00BFA086010000580040FA
:10209000000C014008B54FF400310848FFF748F83C
:1020A0000028F8D101210548FEF702FF0449034842
:1020B000FEF7C6FF0028F9D008BD00BF0058004059
:1020C0000100030008B501210148FEF719FF08BD12
:1020D0000058004010B50C460A4601460948FEF774
:1020E0008BFF34B908490748FEF7AAFF0028F9D04A
:1020F00010BD012C05D105490248FEF7A1FF0028BB
:10210000F9D010BD00580040820007000200030013
:1021100008B501460448FEF743FF04490248FEF7AC
:102120008FFF0028F9D008BD005800408400070048
:1021300008B501210648FEF70BFF06490448FEF7E3
:102140007FFF0028F9D00248FEF740FF08BD00BF1E
:10215000005800404000030008B500210648FEF783
:10216000F7FE06490448FEF76BFF0028F9D0024845
:10217000FEF72CFF08BD00BF0058004040000300E0
:1021800070B504460E461546FFF784FF6400E4B2BE
:1021900000212046FFF79EFF3046FFF7B9FFFFF70B
:1021A00091FFFFF777FF01212046FFF793FFFFF72D
:1021B000D3FF2870FFF786FF70BD00BFF8B5044657
:1021C0000F4615461E46FFF765FF6400E4B2002186
:1021D0002046FFF77FFF3846FFF79AFFFFF772FFB1
:1021E000FFF758FF01212046FFF774FF00240AE0A3
:1021F0006B1E9C4203D1FFF7AFFF305502E0FFF7A3
:1022000097FF30550134AC42F2DBFFF75BFFF8BDBE
:1022100010B40139002305E0C2564456C454425458
:10222000013301398B42F7DB10BC704770B50D46A6
:1022300000240EE00F4B83FB0031C317C3EBA10357
:102240001E4603EB83035900431A30332B553046A7
:1022500001340028EED102E030232B5501349442A2
:10226000FADB21462846FFF7D3FF00232B552046F3
:1022700070BD00BF676666662DE9F84307460E46E7
:10228000154602F095FF044602F03EFF014638462F
:1022900002F084FE0746002231462046FFF7C6FFC3
:1022A000F5B104462E233354284602F00DFB0246B6
:1022B0000B4600200B4901F0DBF880468946384682
:1022C00002F014FB42464B4602F064FB02F012FEA1
:1022D0000134344402F06CFF2A462146FFF7A6FF82
:1022E000BDE8F8830000244030B583B001210846E2
:1022F000FFF716F801211148FEF710FC01210C2010
:10230000FFF70EF848F2FE03ADF8043003258DF810
:10231000065010248DF8074001A90948FEF70AFB72
:1023200040F23B23ADF804308DF806508DF807409D
:1023300001A90448FEF7FEFA03B030BD00023000E8
:1023400000080140000C014030B585B00121022099
:10235000FFF70CF80024ADF80440ADF806404FF646
:10236000AE73ADF80830ADF80A408DF80C400E4D54
:1023700001A92846FFF746F801212846FFF7F0F8A3
:10238000012211462846FFF74FF91D238DF8003032
:102390008DF8014001238DF802308DF80330684636
:1023A000FEF70EF805B030BD0004004030B587B030
:1023B0004FF40040FEF736FF01214FF40070FEF7A6
:1023C000AFFF154C2046FEF747F8002301938DF828
:1023D00008308DF809304FF46022039204930125F0
:1023E0008DF8145001A92046FEF77AF829462046B8
:1023F000FEF71AF92046FEF741F90748FEF75AF9A9
:102400000028FAD10448FEF773F90348FEF78CF967
:102410000028FAD107B030BD0024014010B5324C7D
:102420000023012201462046FEF7C6F9012120467D
:10243000FEF798F902212C48FEF74EFA0028F9D051
:102440002948FEF72FFA1D2805D80123274A1370C3
:10245000274A138044E0A0F22D139BB2942B05D899
:102460000223224A1370224A138039E0A0F28533F6
:102470009BB2942B05D803231C4A13701C4A13806B
:102480002EE0A0F279539BB2C62B05D80423174A3D
:102490001370174A138023E0A0F635039BB2C62BB6
:1024A00005D80523114A1370114A138018E0A0F6CD
:1024B0008D239BB2C62B05D806230C4A13700C4AF9
:1024C00013800DE0A0F681439BB2C62B05D80723ED
:1024D000064A1370064A138002E00022034B1A706A
:1024E000034B188810BD00BF002401407007002076
:1024F000B80700200023054A04E0002102F8011B70
:1025000001339BB2B3F5407FF7D3704758040020E6
:102510005F2801D93F2916D8C0F15F00CB0803EB33
:10252000C00042B101F00701074B595C074A135C38
:102530000B431354704701F00701054B595C034AE4
:10254000135C0B40135470474C00002058040020CB
:1025500044000020202A28D02DE9F84391468846DF
:10256000074600251DE0A9F12003C3EBC3032B445C
:102570000E4AD65C002410E0C4F1040346FA03F3CB
:1025800013F0010F07D005EB0801E0190122C9B2D1
:10259000C0B2FFF7BDFF0134E4B2042CECD9013521
:1025A000EDB2062DDFD9BDE8F8837047C072000890
:1025B000202A29D02DE9F84391468846074600266F
:1025C0001EE0A9F1200303EB43039A0032440F4BB2
:1025D0009D5C002410E0C4F1070345FA03F313F0F7
:1025E000010F07D006EB0801E0190122C9B2C0B201
:1025F000FFF78EFF0134E4B2072CECD90136F6B2B6
:102600000B2EDED9BDE8F883704700BF245F0008B9
:10261000202A36D02DE9F843914688460746002502
:102620002BE0A9F1300303EB43031A012A44154BB5
:102630009E5C00241DE0C4F1070346FA03F313F087
:10264000010F14D015F0010F09D008EB5501E01966
:1026500008300122C9B2C0B2FFF75AFF07E008EB09
:102660005501E0190122C9B2C0B2FFF751FF013490
:10267000E4B2072CDFD90135EDB22F2DD1D9BDE859
:10268000F88370476C6F0008202A34D02DE9F84396
:10269000914688460746002529E0A9F1300305EB5D
:1026A0008313154AD65C00241DE0C4F1070346FAE3
:1026B00003F313F0010F14D015F0010F09D008EB4C
:1026C0005501E01908300122C9B2C0B2FFF720FF5E
:1026D00007E008EB5501E0190122C9B2C0B2FFF7CB
:1026E00017FF0134E4B2072CDFD90135EDB23F2DDD
:1026F000D3D9BDE8F8837047DC6A0008202A27D0C8
:102700002DE9F84391468846074600261CE0A9F1CA
:10271000200306EB03130F4AD55C002410E0C4F13C
:10272000070345FA03F313F0010F07D006EB080186
:10273000E0190122C9B2C0B2FFF7EAFE0134E4B2E7
:10274000072CECD90136F6B20F2EE0D9BDE8F8839C
:10275000704700BF146400082DE9F047824689469F
:102760001D460746002424E0013464B2012D0DD13A
:10277000324649463846FFF7EDFE0637FFB20F2CCA
:1027800004D109F108095FFA89F95746042D06D1E9
:10279000324649463846FFF70BFF0737FFB2022D96
:1027A00006D1324649463846FFF7A8FF0937FFB23F
:1027B000424602F1010892F90060002ED4D1BDE832
:1027C000F08700BF2DE9F047804689461C46089FE8
:1027D000012B05D17B1E03EB43035D00EDB200E04E
:1027E0000025042C03D17D1E05EBC505EDB2032C9D
:1027F00003D17D1EC5EB0515EDB2052C03D17D1E61
:10280000C5EB0515EDB2022C03D17D1E05EBC50508
:10281000EDB2002673E0012C14D13B4BA3FB021355
:10282000DB089A4603EB83035900531A03F1300285
:1028300005EB080052B24946C0B2FFF78BFE524684
:10284000063DEDB2042C14D12F4BA3FB0213DB0881
:102850009A4603EB83035900531A03F1300205EB48
:10286000080052B24946C0B2FFF7A2FE5246083DE8
:10287000EDB2032C14D1244BA3FB0213DB089A46C0
:1028800003EB83035900531A03F1300205EB0800F0
:1028900052B24946C0B2FFF7F7FE52460F3DEDB2C5
:1028A000052C14D1184BA3FB0213DB089A4603EB4B
:1028B00083035900531A03F1300205EB080052B2AA
:1028C0004946C0B2FFF7A4FE52460F3DEDB2022CBE
:1028D00014D10D4BA3FB0213DB089A4603EB8303D1
:1028E0005900531A03F1300205EB080052B2494671
:1028F000C0B2FFF703FF5246083DEDB20136BE42BB
:1029000089DBBDE8F08700BFCDCCCCCC2DE9F04110
:102910008046C70080214048FEF7A0F8002554E01B
:1029200005F007033D4AD65C3D4C10212046FEF7DA
:10293000C5F80B212046FEF7C1F848F206013648DB
:10294000FEF7BCF807EBD504364B1B5D1E4203D0E7
:1029500008213348FEF782F804F18003314AD35C42
:102960001E4204D04FF400412B48FEF777F804F5DF
:1029700080732C4AD35C1E4203D001212848FEF705
:102980006DF804F5C073274AD35C1E4203D00221C0
:102990002348FEF763F804F50073224AD35C1E4215
:1029A00003D002211C48FEF759F804F520741D4B92
:1029B0001B5D1E4203D004211748FEF74FF810217B
:1029C0001748FEF74BF80135EDB23F2DA8D9144C4E
:1029D00020212046FEF742F820212046FEF76EF81F
:1029E000A4F5806408212046FEF768F810212046EF
:1029F000FEF764F820212046FEF760F840212046CB
:102A0000FEF75CF8084B13F808302361802120465C
:102A1000FEF754F8BDE8F081000801404C000020AA
:102A2000000C014050010020340000202DE9F0414D
:102A300080460F4615461E46002408E004EB0800B9
:102A400032463946C0B2FFF763FD0134E4B2AC420E
:102A5000F4D3BDE8F08100BF2DE9F04180460F4678
:102A600015461E46002407E0E1193246C9B2404629
:102A7000FFF74EFD0134E4B2AC42F5D3BDE8F0817E
:102A80002DE9F84306460D4617461C469DF8208062
:102A9000904201D916460746A54202D92B46254643
:102AA0001C46C6EB07095FFA89F943464A462946A0
:102AB0003046FFF7BBFF43464A4621463046FFF704
:102AC000B5FF641BE4B24346224629463046FFF771
:102AD000C3FF621C4346D2B229463846FFF7BCFF0B
:102AE000BDE8F8832DE9F0478146884616469A46A8
:102AF000089F00251DE006FB0543002B00DA073385
:102B0000DB10E0B2C24302F00702FB5C43FA02F2C0
:102B100005EB0801484402F00102C9B2C0B2FFF758
:102B2000F7FC0134A4B200E00024B442E3D3013541
:102B3000ADB25545F8D3BDE8F08700BF00230BE0E8
:102B400010F4004F04D0400080F4445080B201E003
:102B5000400080B20133DBB20F2BF1D9000A70477D
:102B600030B583B001AB0322E3214020FFF726FB01
:102B70009DF804409DF8053043EA04249DF8065072
:102B80002046FFF7DBFF854213D1204602F0B8FA5A
:102B900001F0ACFE08A3D3E9002301F0FBFE08A37B
:102BA000D3E9002301F042FD02F0A4F9064B1860BE
:102BB00000E0002003B030BD992842EA76F6653F78
:102BC000CDCCCCCCCC6C47406C0700200000000082
:102BD00030B583B001AB0322E5214020FFF7EEFAC8
:102BE0009DF804409DF8053043EA04249DF8065002
:102BF0002046FFF7A3FF854213D184F0020002F0C4
:102C00007FFA01F073FE08A3D3E9002301F0C2FEAE
:102C10000022074B01F00AFD02F06CF9054B186029
:102C200000E0002003B030BD25CE8AA8893E5F3F7A
:102C300000001840A407002010B501210848FEF745
:102C40005FFD084C2078FFF761FE23680F2B02D14F
:102C50000022226010BD0133024A136010BD00BF84
:102C60000004004054040020224B1B78224A1370B9
:102C7000224A127802BB224A1278224909888A42E3
:102C800009D0022907D1032B05D8591C1948017016
:102C900000201C4908801B4909888A4221D0052947
:102CA0001FD1144A1278012A1BD9013A11490A701E
:102CB0000021144A118014E011490878114909884B
:102CC00088420ED001290CD1012A05D90B4A117076
:102CD00000210C4A118004E0002208490A700949C9
:102CE0000A80044A1278934202D00022034B1A70E1
:102CF000704700BF580700206907002050040020DB
:102D000070070020B807002030B589B000F038FB0C
:102D1000AC4D02AC204600F0FDFA94E8030085E8D3
:102D20000300A94D204600F0F5FA94E8030085E879
:102D30000300A64D204600F0EDFA94E8030085E874
:102D4000030000F033FBFFF731FBFFF7CDFAFFF78D
:102D5000FBFAFFF7C3F840F6B8319C4800F0EEFAF2
:102D600038B1FFF7FDFE9A4B1860FFF731FF994B22
:102D700018604FF49671944800F0E0FA50B1964B09
:102D8000964A97499748FFF737F9974A97499848DD
:102D9000FFF7E4F864218B4800F0D0FA002800F037
:102DA00061820020FFF73AFB924B1880FFF75CFF2F
:102DB000FFF7A0FB904B1B7863BB904A137801335D
:102DC000DBB21370142B1BD8012400940F235F2255
:102DD00000210846FFF754FE0223894A00210420FF
:102DE000FFF7BAFC874B00932023402214210F20C9
:102DF000FFF778FE2346844A37210C20FFF7ACFC0E
:102E00007E4B1B78182B05D900227C4B1A700122AF
:102E1000794B1A70784B1B78012B40F0F1817B4B7A
:102E20001B78022B00F006810A2B00F06A81012B2F
:102E300040F0CA816E4B1A78022400940323FF21CC
:102E4000FE20FFF7BFFC694B1A7800940323FF2193
:102E50002020FFF7B7FC644D2A7800940323FF215C
:102E60004220FFF7AFFC012400940A231F2208210F
:102E70001D20FFF705FE009413231F2211211D20A2
:102E8000FFF7FEFD2B7813F0010F0ED000940723FF
:102E9000412205213F20FFF7F3FD00941623412234
:102EA00014213F20FFF7ECFD0EE0012400940A23DB
:102EB000412208213F20FFF7E3FD00941323412224
:102EC00011213F20FFF7DCFD434B1A7804230093C8
:102ED000022302F5FA6223213A20FFF773FC3F4BED
:102EE0001A780224009423462F213920FFF76AFC28
:102EF0002346474A2F214820FFF72EFC384B1A78EB
:102F0000009423462F214E20FFF75CFC01231E2254
:102F100022213720FFF7A0FD3E492D4B186802F013
:102F20003DF8224604A9FFF7A7F901233A4A2E21CA
:102F30002046FFF711FC394D01232A462E21062099
:102F4000FFF70AFC012304AA2E210C20FFF704FC42
:102F50007F222E212A20FFF7FDFA0123304A2E215D
:102F60003020FFF7F9FB224606A91A4B1868FFF735
:102F700083F901232B4A37212046FFF7EDFB01237C
:102F80002A4637210C20FFF7E7FB012306AA372149
:102F90001220FFF7E1FB0123234A37213120FFF7FD
:102FA000DBFB224B1A78224B1B889A4200F02881C7
:102FB000072B40F0258100221D4B1A80134B1C70FB
:102FC0001EE100BF980700207C0700208407002036
:102FD000B4070020AC07002090070020A0070020C5
:102FE000940700206807002095070020B007002004
:102FF0009607002092070020580700204C0100206F
:10300000146A0008C0710008206A000850040020FB
:10301000306A00080000C040346A0008386A0008BE
:103020003C6A0008406A0008446A000870070020F3
:10303000B80700209F4B1A789F4B1B889A4224D0D8
:10304000052B08D19D4B1B782BB1013B9B4A13707C
:103050000022994B1A80984B1B88022B09D1974B61
:103060001B78082B05D80133944A13700022924B29
:103070001A80914B1B88042B07D100228E4B1A809B
:103080008E4B1B780A338E4A137002238D4AFF2120
:103090000420FFF761FB0124009410235F2200212C
:1030A0000846FFF7EDFC2346874A38210520FFF745
:1030B00053FB824B1B783BB9844B00931F23202288
:1030C00014212120FFF70EFD7C4B1B78012B07D12B
:1030D0007F4B00931E23202214212120FFF702FDA5
:1030E000764B197801237B4A52F8212038210F2092
:1030F000FFF732FB0123784A38215520FFF72CFBDC
:103100007EE06C4B1A786C4B1B889A4218D0052BCA
:1031100008D16A4B1B782BB1013B684A137000221F
:10312000654B1A80644B1B88022B09D1634B1B78BB
:10313000022B05D80133614A137000225E4B1A80BE
:103140000223664AFF210420FFF706FB01240094B6
:103150000E235F2200210846FFF792FC604B1A788D
:103160000225009503231421FE20FFF72BFB5D4B66
:103170001A780095032314212020FFF723FB5A4BD4
:103180001A780095032314214220FFF71BFB0094BB
:103190001F231A461D210846FFF772FC00942823BE
:1031A0001F2226211D20FFF76BFC00941F234122C4
:1031B0001D213F20FFF764FC009428234122262193
:1031C0003F20FFF75DFC1BE0484B00932C2330228F
:1031D00002211920FFF786FC0223454A30210A20EC
:1031E000FFF7BAFA334B1A78334B1B889A4207D051
:1031F000042B05D10022304B1A800122304B1A706B
:103200003C4B1B78022B1FD12D4B1B78012B1BD065
:10321000394B00932823302202211B20FFF762FC48
:103220000223364A30210F20FFF796FA214B1A78F5
:10323000214B1B889A4207D0042B05D100221E4B3C
:103240001A8001221E4B1A702A4B1B78032B09D1BE
:103250001B4B1B78012B07D10223294A194618461C
:10326000FFF77AFA002321E0264B009330231A4619
:1032700002211920FFF736FC0223234A30211E20A9
:10328000FFF76AFA0B4B1A780B4B1B889A42E9D06E
:10329000042BE7D10022084B1A800122084B1A7038
:1032A000E0E71A4AD15C1A4AD1540133B3F5407FA2
:1032B000F7DB50E570070020B80700205907002011
:1032C00050040020486A0008546A00089863000807
:1032D0004C710008FC5E0008586A00085C6A00082F
:1032E00096070020B007002095070020F45D000835
:1032F000646A0008580700207C6E0008706A0008A5
:10330000786A00085C6D0008806A00085804002094
:1033100050010020002202710260704738B50B4650
:10332000003118BF0121017131B11C46054600F082
:1033300037F82044431E2B6038BD00BF70B50546EA
:103340000E46037953B1046800F02AF8201A4EF6AD
:103350006023984209D94042C4B200E000243146BB
:103360002846FFF7DBFF204670BD002070BD00BF80
:10337000024A136801331360704700BFBC07002086
:103380000022044B1A60044B044A5A609A600722D8
:103390001A607047BC07002010E000E03F190100F0
:1033A000014B1868704700BFBC07002070B586B09D
:1033B00001210420FDF7B4FF01214FF48040FDF707
:1033C000AFFF18238DF817304FF40073ADF81430A9
:1033D00003238DF81630234C05A92046FDF7AAFAE1
:1033E00004238DF817304FF48063ADF8143005A92D
:1033F0002046FDF79FFA4FF4E060FCF7C1FF25235C
:103400008DF8003000248DF801408DF8024001262F
:103410008DF803606846FCF7D3FF4FF4E133019366
:10342000ADF810400C23ADF80E30ADF80C40ADF8FF
:103430000A40ADF808400C4D01A92846FEF7BCF93A
:10344000324640F225512846FEF7C0FA314628465A
:10345000FEF788FAC8222146044801F0D5FE06B0DE
:1034600070BD00BF0008014000380140C0070020C7
:103470002DE9F04F8DB006460F4614461D4600F06C
:103480008FF9DFF81093CDE9000199F90080B8F1C8
:10349000FF3F46D022462B462046294601F014FD28
:1034A000834600283DD132463B463046394601F03E
:1034B0000BFD8246002874D1304639460022002395
:1034C00001F0D0FC002833D00022002320462946FA
:1034D00001F0C8FC8346B8B1A94A012300200021AD
:1034E000CDF828A0CDE90467CDE90645CDE908016E
:1034F00003920293B8F1000F6CD0A24B0022104649
:1035000019460DB0BDE8F08F2046294600F072FF45
:1035100038B1002200232046294601F0ADFC0028E6
:103520006AD1DDE90023104619460DB0BDE8F08FE1
:10353000DDE9000100F05EFF804600287DD0DDE976
:1035400000014FF0000A4FF0000B52465B4601F0BD
:1035500089FC0028E5D03046394600F04BFF0028B2
:10356000DFD02046294600F045FF0028D9D099F940
:103570000030834804210022022BCDE90467CDE905
:103580000645CDE908AB039002910A9204D002A847
:1035900000F036FF002847D101F030FE22230360FF
:1035A00042E0002200232046294601F05BFC00286F
:1035B000B7D0744B724800220121B8F1020FCDF848
:1035C00028B0CDE90467CDE90645CDE9082303908D
:1035D0000291A8D002A800F013FF00287ED00A9B19
:1035E00043B301F00BFEDDE908230A9901601046A0
:1035F00019460DB0BDE8F08F614999F900300122FC
:10360000CDF828B0CDE90467CDE9064503910292D3
:10361000002B68D05C490020022BCDE9080166D15F
:1036200001F0ECFD212303600A9B1BB101F0E6FDD4
:103630000A9B0360DDE9082375E73046394600F050
:10364000D9FE00283FF47BAF2046294600F0D2FE89
:1036500000283FF474AFDDE900231046194601F05D
:1036600033FC00286FD1464B99F900800393032364
:103670000A90CDE90467CDE906450293B8F1000F41
:103680003BD1DFF814B14FF0604A002200233046EE
:103690003946CDE908AB01F0EFFB00283FF477AFE6
:1036A00000223A4B2046294601F074F904460D46A3
:1036B00000F0AEFE02460B462046294601F0D2FB42
:1036C00000283DD1324B4FF06042CDE9082399F9F3
:1036D0000080B8F1020F7FF45AAF5DE701F08EFD74
:1036E000212303607BE700230024CDE9083402A8EE
:1036F00000F086FE002897D192E7DFF8A0B04FF0E7
:10370000000A0022002330463946CDE908AB01F01B
:10371000B3FB0028DDD000221C4B2046294601F0D7
:1037200039F904460D4600F073FE02460B4620466A
:10373000294601F097FB18B9134B0022CDE9082365
:1037400099F90080C5E70E4A99F900900123CDF858
:103750002880CDE90467CDE9064503920293B9F1CB
:10376000000FC0D0002200231046194601F03CFA99
:10377000B9F1020FCDE908013FF452AFB7E700BF3E
:10378000607500080000F03F0000F0FF0000E03F1F
:10379000FFFFEFC754000020FFFFEF470000F07F5E
:1037A0002DE9F04F23F0004858EA020993B03CD0CD
:1037B000714C21F00046A64283460D460CDD06F111
:1037C000404606F5801656EA0B0038D183466B4911
:1037D000584613B0BDE8F08F9A4696462BD0A045C8
:1037E000EDDC654CA04578D0002D0F468146CDE933
:1037F000002376DB0024BEF1000F27D15E4B9845F5
:1038000000F08B805D4B984552D0BAF1804F00F0AC
:10381000C9835B4B9A4519D1002D17DB48463946C1
:1038200013B0BDE8F04F00F01DBDCB4658465349DC
:1038300013B0BDE8F08F0028C1D1B045D1DD5148AB
:1038400013B0BDE8F04F00F0DDBD00244846394616
:1038500000F0CCFDBBF1000F1CD0ED0F013D54EA90
:10386000050370D0484B984540F3948003F10473EE
:10387000984540F30D84454B9E4270DDBAF1000F30
:1038800070DD3BA3D3E900231046194601F082F80E
:1038900083469DE726B1394B25F040429A42DCD160
:1038A000BAF1000FC0F2B783002D08DB83468FE723
:1038B000BAF1000FC0F25E84CB46394688E706F1C4
:1038C000404606F5801656EA040300F08384012C76
:1038D000ECD101F1004183467AE7BEF1000F83D0BD
:1038E0006DE72B4B98452CDCA3F15473984581DD93
:1038F0004FEA2853A3F2FF33142B40F35384C3F150
:1039000034032EFA03F202FA03F39E457FF472AFFA
:1039100002F00102C2F102046DE706F1404303F533
:10392000801353EA0B0300F03A83184B9E4240F396
:103930006783BAF1000F15DBDDE900349B462146B1
:1039400046E7022457E74A4648463B46394600F0D8
:103950006DFE02460B4601F047F9834638E7BAF19F
:10396000000F8EDB4FF0000B594631E7AFF30080BC
:103970009C7500883CE4377E0000F07F0000F03F3B
:103980000000E03FA85C00080000E041FFFFEF3FBF
:10399000FFFF3F43B6F5801F4FF0000205DAD04B22
:1039A00000F0F8FF0E466FF03402DFF844E3331501
:1039B000C6F31306A3F2FF3346F07F57764503EBB9
:1039C000020A47F4401740F3C983C64B00229E42C7
:1039D00040F304840023CDE90823CDE90C23C24B36
:1039E0000022CDE906230AF1010AA7F58017002677
:1039F0003946DDE90623CDE90A0100F017FEDDE9CD
:103A0000062380468946DDE90A0100F011FE0246E0
:103A10000B460020B44901F0E7F80A460146134678
:103A2000CDE90E1202464946404600F0B3FF8C46EF
:103A300083467B1043F0005303F5002399190020BF
:103A4000CDE904BC06460F464FF0000B61465846D0
:103A500032463B46CDE910BCCDE9020100F09AFFA9
:103A600002460B464046494600F0E0FDDDE90623EC
:103A7000804689463046394600F0D8FD02460B465E
:103A8000DDE90A0100F0D2FDDDE9022300F082FF4A
:103A900002460B464046494600F0C8FDDDE90E23CC
:103AA00000F078FFDDE90478CDE906013A464346A7
:103AB0003846414600F06EFF77A3D3E9002306465F
:103AC0000F4600F067FF76A3D3E9002300F0B0FDB6
:103AD00032463B4600F05EFF73A3D3E9002300F0BB
:103AE000A7FD32463B4600F055FF71A3D3E9002302
:103AF00000F09EFD32463B4600F04CFF6EA3D3E93A
:103B0000002300F095FD32463B4600F043FF6CA3D6
:103B1000D3E9002300F08CFD3246804689463B46BF
:103B20003046394600F036FF02460B4640464946CD
:103B300000F030FFDDE9022306460F46DDE904010F
:103B400000F076FDDDE9062300F024FF32463B4617
:103B500000F06EFDDDE902678046894632463B464D
:103B60003046394600F016FF0022604BCDE90A01CD
:103B700000F05EFD42464B4600F05AFDDDE910BC08
:103B80000F46DDE902015A463B46CDE90EBC5E46D2
:103B900000F000FF0022CDE90201544B30463946C7
:103BA00000F044FDDDE90A2300F040FD02460B462B
:103BB0004046494600F03AFDDDE9042300F0EAFE04
:103BC000324680468946DDE906013B4600F0E2FECA
:103BD00002460B464046494600F02AFD804689468B
:103BE00002460B46DDE9020100F022FDDDE90EBCD4
:103BF00035A3D3E900235846CDE906BC5E460F46FF
:103C000000F0C8FEDDE90223CDE904013046394663
:103C100000F00CFD02460B464046494600F006FD0A
:103C20002BA3D3E9002300F0B5FE2BA3D3E9002397
:103C3000804689463046394600F0ACFE02460B46C7
:103C40004046494600F0F4FCDDE90C2300F0F0FCAE
:103C500080465046894600F037FE06460F46DDE9AD
:103C6000040142464B4600F0E3FCDDE9082300F086
:103C7000DFFC32463B4600F0DBFCDDE906BC3246A9
:103C800058463B46DA468B4600F0D0FCDDE9082377
:103C900030E000BFAFF30080EF4E454A287ECA3FB8
:103CA00065DBC9934A86CD3F01411DA96074D13FB0
:103CB0004D268F515555D53FFFAB6FDBB66DDB3FC2
:103CC000033333333333E33F000000E009C7EE3FF3
:103CD000FD033ADC09C7EE3FF5015B14E02F3EBE61
:103CE0000000404379B60B000000F03F00000840A0
:103CF0008E98030000F09AFCDDE9042300F096FCA6
:103D000002460B464046494600F090FC80468946F4
:103D1000DDE90012013C54EA050314BFD64CD74C30
:103D20000023CDE904340B461446CDE902340023C8
:103D30000293DDE9024508462B461146224600F073
:103D400075FC52465B4600F025FEDDE90023064681
:103D50000F464046494600F01DFE02460B463046DF
:103D6000394600F065FC06460F4622462B46504673
:103D70005946CDE9006700F00DFE0B46024680462D
:103D800089463046394600F053FCBD4B0646994201
:103D90000D460C4640F30E8101F13F4303F5E0036D
:103DA000034340F0F081A0A3D3E90023DDE9000143
:103DB00000F03EFC424682468B464B463046294642
:103DC00000F034FC02460B465046594601F072F8AA
:103DD000002840F0D8812F463B154FF48012A3F203
:103DE000FE3342FA03F32344C3F30A52A54EA2F270
:103DF000FF321641C3F3130B0020C2F1140523EA6E
:103E000006014BF4801B02460B46002C4BFA05FBC7
:103E100040464946B8BFCBF1000B00F007FC024614
:103E20000B4680468946DDE9000100F001FC4FEABF
:103E30000B5A00247EA3D3E9002320460D4600F050
:103E4000A9FD424606460F464B462046294600F04D
:103E5000EDFB02460B46DDE9000100F0E7FB76A32F
:103E6000D3E9002300F096FD75A3D3E90023804633
:103E700089462046294600F08DFD02460B46404605
:103E8000494600F0D5FB8046894602460B4630463F
:103E9000394600F0CDFB32463B4604460D4600F065
:103EA000C5FB02460B464046494600F0BFFB224692
:103EB000804689462B462046294600F06BFD62A3CA
:103EC000D3E9002306460F4600F064FD60A3D3E962
:103ED000002300F0ABFB32463B4600F05BFD5EA3E7
:103EE000D3E9002300F0A4FB32463B4600F052FD2C
:103EF0005BA3D3E9002300F099FB32463B4600F078
:103F000049FD59A3D3E9002300F092FB32463B461A
:103F100000F040FD02460B462046294600F086FB95
:103F200006460F4602460B462046294600F032FD63
:103F30000022CDE900014FF080433046394600F0C1
:103F400075FB02460B46DDE9000100F04DFE4246DE
:103F500006460F464B462046294600F01BFD4246CA
:103F60004B4600F065FB02460B463046394600F0F2
:103F70005DFB22462B4600F059FB02460B46002013
:103F80003D4900F053FB8A44BAF5801FC0F23781E7
:103F90005146DDE9042300F0FDFC834618E4F346B6
:103FA000354915E44A4648463B46394600F0F2FC9E
:103FB00083460DE4344B21F000479F4240F30181DA
:103FC000324B0B4403430CD142464B4600F02EFBD0
:103FD00002460B46DDE9000100F058FF00283FF4DF
:103FE000FBAE23A3D3E90023DDE9040100F0D2FCFA
:103FF0001FA3D3E9002300F0CDFC8346FFF7E8BB05
:10400000BAF1000FBFF6AEACDDE900349B4604F117
:104010000041FFF7DDBB02460B460020164900F0C9
:10402000E3FD41E4AFF30080FE822B654715973C2A
:1040300000000000432EE63FEF39FAFE422EE63F35
:10404000396CA80C615C20BED0A4BE726937663E94
:10405000F16BD2C541BDBB3E2CDE25AF6A56113F88
:1040600093BDBE166CC1663F3E5555555555C53F6F
:1040700059F3F8C21F6EA5010000F03F0000F0BF29
:10408000FFFF8F40FFFF0F00FFCB904000346F3FDA
:104090006F4B9E427FF763AC6E4B9E423FF7EEAB99
:1040A00000226C4B00F0C2FA5BA3D3E90023064662
:1040B0000F4600F06FFC5AA3D3E9002380468946DF
:1040C0003046394600F066FC002282468B46624B41
:1040D0003046394600F05EFC02460B4652A1D1E95B
:1040E000000100F0A3FA32463B4600F053FC0246C2
:1040F0000B460020594900F099FA3246CDE90201F9
:104100003B463046394600F045FC02460B46DDE9A9
:10411000020100F03FFC46A3D3E9002300F03AFC83
:1041200002460B465046594600F080FA02460B46BE
:1041300006460F464046494600F07AFA42464B464C
:10414000002082468B4600F071FA02460B4630464C
:10415000394600F06BFA80468946D9E500220023F3
:10416000CDE90823CDE90C233A4B00220026CDE906
:1041700006233DE44A463B460020364900F034FD24
:104180008346FFF725BB2CA3D3E90023DDE9040117
:1041900000F000FC28A3D3E9002300F0FBFB8346DA
:1041A000FFF716BBBEF1000F7FF44FABC3F1140352
:1041B00048FA03F202FA03F3984524D07446FFF755
:1041C00021BB264B9F423FF707AEDDE902349A46FA
:1041D0009B462EE602460B46FFF7B9BB204B4FF439
:1041E0008026CDE9062316A3D3E90023CDE90823D1
:1041F00015A3D3E90023CDE90C23FFF7F9BB5A46F9
:1042000000F096F9C5E602F00102C2F10204FFF7E0
:10421000F9BA00BFAFF30080000000604715F73F18
:1042200044DF5DF80BAE543E555555555555D53FB9
:10423000FE822B654715F73F9C7500883CE4377E6E
:104240000000004003B8E23F06D0CF43EBFD4C3EF8
:10425000FEFFEF3F0000F03F0000D03F0000E03FD6
:104260000000F83F2DE9F0415F4E0C46B6460E4087
:104270007645054600F0988000290B46024674DD1D
:104280005FEA215E7FD0AEF2FF3EC3F313031EF060
:10429000010F43F4801363D100273E4603EBD27134
:1042A0000B444FEA6E0E520016204FF400117418A2
:1042B0009C424FEAD2754FEA420202DC1B1B661891
:1042C0000F44013805EB43034FEA5101EFD1844617
:1042D00020244FF0004109E020D003EBD275013CCF
:1042E0004FEA51012B444FEA420220D09E4201EB9B
:1042F0000C05F1DA002D05EB010C09DBB046954207
:10430000A3EB060300D9013B4646521B0844E4E7F1
:10431000BCF1000FF2DB06F10108F0E7954217D877
:10432000002D05EB010C49DB98460023ECE7134315
:1043300010D140087B1003F17F5303F50013FA07F7
:1043400003EB0E57394648BF40F00040BDE8F0810E
:104350003346C2E7411C35D000F001031844E8E7BA
:104360005B0003EBD273520096E721F00046064350
:10437000ECD079BB8E46D30AAEF1150E5205002B58
:10438000F9D0DD0221D4002100E001465B00DC020F
:1043900001F10100F9D5C0F1200422FA04F423430D
:1043A000C1EB0E0E82406EE702460B4600F0F2FAB9
:1043B0002A46234600F03CF9BDE8F081BCF1000F2D
:1043C000A9DAB1E701372046B4E720244FF0FF31E6
:1043D0000020E2E702460B4600F028F902460B46B1
:1043E00000F002FCB2E700BF0000F07F21F00041C6
:1043F000704700BF41F0004101F58010C00F7047C9
:104400000020704700200149704700BF0000F87F7E
:10441000F0B5C1F30A5EAEF2FF36132E83B002464A
:104420000B460C464FEAD17507462EDC002E49DBC1
:104430003D49314103EA010010432BD049080B40AC
:1044400053EA02070CD04FF48023132E24EA010113
:1044500043FA06F444EA01040CBF4FF0004700277A
:10446000324B214603EBC505D5E9004538462246C7
:104470002B4600F0DDF8CDE90001DDE90001224620
:104480002B4600F0D3F803B0F0BD332E06DDB6F5B1
:10449000806F45D01046194603B0F0BDAEF2134E02
:1044A0004FF0FF3121FA0EF10842F3D049080842DB
:1044B000D6D04FF0804320EA010143FA0EFE4EEAC7
:1044C0000107CDE721F0004101431946E4D0C3F3D1
:1044D000130343EA000CCCF1000343EA0C0C134B2A
:1044E000640C4FEA1C3C0CF4002C03EBC503640481
:1044F000D3E900674CEA040132463B4600F098F8E5
:10450000CDE90001DDE9000132463B4600F08EF8BE
:10451000024621F0004141EAC57310461946BBE747
:1045200000F086F8B8E700BFFFFF0F0068750008CD
:10453000F8B5C1F30A5604460D460B46174606BBAE
:1045400021F00043034325D000222F4B00F022FA34
:104550002E4A044697420D460B462ADBC1F30A5603
:10456000363E40F2FE723E44964228DC002E12DDBA
:1045700023F0FF4323F4E00343EA0655204629468F
:10458000F8BD40F2FF729642EBD102460B4600F0B6
:104590004FF8F8BDF8BD16F1350F1DDA4CF2503367
:1045A0009F420CDC14A1D1E9000122462B4600F009
:1045B00031F811A3D3E9002300F0ECF9F8BD22464D
:1045C0000FA1D1E900012B4600F024F80CA3D3E998
:1045D000002300F0DFF9F8BD23F0FF4323F4E003EC
:1045E000363643EA0655204629460022084B00F09D
:1045F000D1F9F8BDAFF3008059F3F8C21F6EA501E1
:104600009C7500883CE4377E00005043B03CFFFFBF
:104610000000903C03F0004321F0004242EA030115
:10462000704700BF81F0004102E000BF83F000430B
:1046300030B54FEA41044FEA430594EA050F08BF3D
:1046400090EA020F1FBF54EA000C55EA020C7FEA01
:10465000645C7FEA655C00F0E2804FEA5454D4EB7E
:104660005555B8BF6D420CDD2C4480EA020281EA48
:10467000030382EA000083EA010180EA020281EA80
:104680000303362D88BF30BD11F0004F4FEA0131D2
:104690004FF4801C4CEA113102D0404261EB4101E1
:1046A00013F0004F4FEA03334CEA133302D0524267
:1046B00063EB430394EA050F00F0A780A4F1010423
:1046C000D5F1200E0DDB02FA0EFC22FA05F280185D
:1046D00041F1000103FA0EF2801843FA05F3594143
:1046E0000EE0A5F120050EF1200E012A03FA0EFCC2
:1046F00028BF4CF0020C43FA05F3C01851EBE371EC
:1047000001F0004507D54FF0000EDCF1000C7EEB08
:1047100000006EEB0101B1F5801F1BD3B1F5001F46
:104720000CD349085FEA30004FEA3C0C04F1010465
:104730004FEA445212F5800F80F09A80BCF1004F8E
:1047400008BF5FEA500C50F1000041EB045141EA10
:10475000050130BD5FEA4C0C404141EB010111F411
:10476000801FA4F10104E9D191F0000F04BF0146BC
:104770000020B1FA81F308BF2033A3F10B03B3F19A
:1047800020020CDA0C3208DD02F1140CC2F10C022A
:1047900001FA0CF021FA02F10CE002F11402D8BF88
:1047A000C2F1200C01FA02F120FA0CFCDCBF41EA54
:1047B0000C019040E41AA2BF01EB0451294330BD23
:1047C0006FEA04041F3C1CDA0C340EDC04F1140400
:1047D000C4F1200220FA04F001FA02F340EA0300D7
:1047E00021FA04F345EA030130BDC4F10C04C4F11D
:1047F000200220FA02F001FA04F340EA03002946FD
:1048000030BD21FA04F0294630BD94F0000F83F446
:10481000801306BF81F480110134013D4EE77FEA29
:10482000645C18BF7FEA655C29D094EA050F08BF75
:1048300090EA020F05D054EA000C04BF1946104656
:1048400030BD91EA030F1EBF0021002030BD5FEA9A
:10485000545C05D14000494128BF41F0004130BDC2
:1048600014F580043CBF01F5801130BD01F0004516
:1048700045F0FE4141F470014FF0000030BD7FEA89
:10488000645C1ABF194610467FEA655C1CBF0B4684
:10489000024650EA013406BF52EA033591EA030F9B
:1048A00041F4002130BD00BF90F0000F04BF002193
:1048B000704730B54FF4806404F132044FF00005C6
:1048C0004FF0000150E700BF90F0000F04BF00213F
:1048D000704730B54FF4806404F1320410F00045A5
:1048E00048BF40424FF000013EE700BF42004FEAA0
:1048F000E2014FEA31014FEA02701FBF12F07F431D
:1049000093F07F4F81F06051704792F0000F14BF19
:1049100093F07F4F704730B54FF4607401F000455D
:1049200021F0004120E700BF50EA010208BF7047B4
:1049300030B54FF000050AE050EA010208BF7047A9
:1049400030B511F0004502D5404261EB41014FF412
:10495000806404F132045FEA915C3FF4DCAE4FF016
:1049600003025FEADC0C18BF03325FEADC0C18BFFD
:10497000033202EBDC02C2F1200300FA03FC20FA4E
:1049800002F001FA03FE40EA0E0021FA02F114449B
:10499000C1E600BF70B54FF0FF0C4CF4E06C1CEAB0
:1049A00011541DBF1CEA135594EA0C0F95EA0C0F25
:1049B00000F0DEF82C4481EA030621EA4C5123EA98
:1049C0004C5350EA013518BF52EA033541F48011C7
:1049D00043F4801338D0A0FB02CE4FF00005E1FB7A
:1049E00002E506F00042E0FB03E54FF00006E1FBC4
:1049F00003569CF0000F18BF4EF0010EA4F1FF0407
:104A0000B6F5007F64F5407404D25FEA4E0E6D4146
:104A100046EB060642EAC62141EA55514FEAC52057
:104A200040EA5E504FEACE2EB4F1FD0C88BFBCF5D3
:104A3000E06F1ED8BEF1004F08BF5FEA500E50F184
:104A4000000041EB045170BD06F0004646EA01014A
:104A500040EA020081EA0301B4EB5C04C2BFD4EB7C
:104A60000C0541EA045170BD41F480114FF0000E75
:104A7000013C00F3AB8014F1360FDEBF002001F0E3
:104A8000004170BDC4F10004203C35DA0C341BDC5D
:104A900004F11404C4F1200500FA05F320FA04F02F
:104AA00001FA05F240EA020001F0004221F0004163
:104AB00010EBD37021FA04F642EB06015EEA430ED6
:104AC00008BF20EAD37070BDC4F10C04C4F1200506
:104AD00000FA04F320FA05F001FA04F240EA0200B9
:104AE00001F0004110EBD37041F100015EEA430E8A
:104AF00008BF20EAD37070BDC4F1200500FA05F2AA
:104B00004EEA020E20FA04F301FA05F243EA020328
:104B100021FA04F001F0004121FA04F220EA020037
:104B200000EBD3705EEA430E08BF20EAD37070BD7D
:104B300094F0000F0FD101F00046400041EB01015D
:104B400011F4801F08BF013CF7D041EA060195F03F
:104B5000000F18BF704703F00046520043EB0303F9
:104B600013F4801F08BF013DF7D043EA06037047E6
:104B700094EA0C0F0CEA135518BF95EA0C0F0CD0F1
:104B800050EA410618BF52EA4306D1D181EA030137
:104B900001F000414FF0000070BD50EA410606BF31
:104BA0001046194652EA430619D094EA0C0F02D176
:104BB00050EA013613D195EA0C0F05D152EA0336BB
:104BC0001CBF104619460AD181EA030101F00041D9
:104BD00041F0FE4141F470014FF0000070BD41F022
:104BE000FE4141F4780170BD70B54FF0FF0C4CF4FC
:104BF000E06C1CEA11541DBF1CEA135594EA0C0F1B
:104C000095EA0C0F00F0A7F8A4EB050481EA030E67
:104C100052EA03354FEA013100F088804FEA03334E
:104C20004FF0805545EA131343EA12634FEA02221C
:104C300045EA111545EA10654FEA00260EF00041DD
:104C40009D4208BF964244F1FD0404F5407402D22F
:104C50005B084FEA3202B61A65EB03055B084FEAC0
:104C600032024FF480104FF4002CB6EB020E75EBBD
:104C7000030E22BFB61A754640EA0C005B084FEAE5
:104C80003202B6EB020E75EB030E22BFB61A754662
:104C900040EA5C005B084FEA3202B6EB020E75EBAD
:104CA000030E22BFB61A754640EA9C005B084FEA25
:104CB0003202B6EB020E75EB030E22BFB61A754632
:104CC00040EADC0055EA060E18D04FEA051545EA21
:104CD00016754FEA06164FEAC30343EA52734FEACA
:104CE000C2025FEA1C1CC0D111F4801F0BD141EA43
:104CF00000014FF000004FF0004CB6E711F4801FA8
:104D000004BF01430020B4F1FD0C88BFBCF5E06F87
:104D10003FF6AFAEB5EB030C04BFB6EB020C5FEA97
:104D2000500C50F1000041EB045170BD0EF0004EEC
:104D30004EEA113114EB5C04C2BFD4EB0C0541EA1E
:104D4000045170BD41F480114FF0000E013C90E61B
:104D500045EA060E8DE60CEA135594EA0C0F08BFDF
:104D600095EA0C0F3FF43BAF94EA0C0F0AD150EADE
:104D700001347FF434AF95EA0C0F7FF425AF104671
:104D800019462CE795EA0C0F06D152EA03353FF499
:104D9000FDAE1046194622E750EA410618BF52EA16
:104DA00043067FF4C5AE50EA41047FF40DAF52EAEA
:104DB00043057FF4EBAE12E74FF0FF3C06E000BF87
:104DC0004FF0010C02E000BF4FF0010C4DF804CD94
:104DD0004FEA410C7FEA6C5C4FEA430C18BF7FEA54
:104DE0006C5C1BD001B050EA410C0CBF52EA430C82
:104DF00091EA030F02BF90EA020F0020704710F102
:104E0000000F91EA030F58BF994208BF90422CBF90
:104E1000D8176FEAE37040F0010070474FEA410C89
:104E20007FEA6C5C02D150EA013C07D14FEA430CA7
:104E30007FEA6C5CD6D152EA033CD3D05DF8040B18
:104E4000704700BF8446104662468C46194663464A
:104E500000E000BF01B5FFF7B7FF002848BF10F121
:104E6000000F01BD4DF808EDFFF7F4FF0CBF012066
:104E700000205DF808FB00BF4DF808EDFFF7EAFFE2
:104E800034BF012000205DF808FB00BF4DF808ED9D
:104E9000FFF7E0FF94BF012000205DF808FB00BF92
:104EA0004DF808EDFFF7CEFF94BF012000205DF81C
:104EB00008FB00BF4DF808EDFFF7C4FF34BF012029
:104EC00000205DF808FB00BF4FEA410C7FEA6C5CF4
:104ED00002D150EA013C0AD14FEA430C7FEA6C5CF4
:104EE00002D152EA033C02D14FF0000070474FF06C
:104EF000010070474FEA4102B2F1E04324BFB3F52D
:104F0000001CDCF1FE5C0DD901F0004C4FEAC00240
:104F10004CEA5070B2F1004F40EB830008BF20F024
:104F20000100704711F0804F21D113F13872BCBFDE
:104F300001F00040704741F480114FEA5252C2F133
:104F40001802C2F1200C10FA0CF320FA02F018BF7C
:104F500040F001004FEAC1234FEAD32303FA0CFCCF
:104F600040EA0C0023FA02F34FEA4303CCE77FEA5E
:104F7000625307D150EA01331EBF4FF0FE4040F4A8
:104F80004000704701F0004040F0FE4040F4000057
:104F9000704700BF80F0004002E000BF81F0004198
:104FA00042001FBF5FEA410392EA030F7FEA226CCF
:104FB0007FEA236C6AD04FEA1262D2EB1363C1BF5F
:104FC000D218414048404140B8BF5B42192B88BFCE
:104FD000704710F0004F40F4000020F07F4018BFF1
:104FE000404211F0004F41F4000121F07F4118BF11
:104FF000494292EA030F3FD0A2F1010241FA03FCB9
:1050000010EB0C00C3F1200301FA03F100F00043A0
:1050100002D5494260EB4000B0F5000F13D3B0F168
:10502000807F06D340084FEA310102F10102FE2AD7
:1050300051D2B1F1004F40EBC25008BF20F0010047
:1050400040EA03007047490040EB000010F4000FF5
:10505000A2F10102EDD1B0FA80FCACF1080CB2EB88
:105060000C0200FA0CF0AABF00EBC25052421843E7
:10507000BCBFD0401843704792F0000F81F400018C
:1050800006BF80F400000132013BB5E74FEA41035F
:105090007FEA226C18BF7FEA236C21D092EA030FCB
:1050A00004D092F0000F08BF0846704790EA010F45
:1050B0001CBF0020704712F07F4F04D1400028BF72
:1050C00040F00040704712F100723CBF00F5000054
:1050D000704700F0004343F0FE4040F4000070478A
:1050E0007FEA226216BF08467FEA23630146420236
:1050F00006BF5FEA412390EA010F40F48000704749
:105100004FF0000304E000BF10F0004348BF4042EE
:105110005FEA000C08BF704743F0964301464FF02A
:1051200000001CE050EA010208BF70474FF0000386
:105130000AE000BF50EA010208BF704711F00043C7
:1051400002D5404261EB41015FEA010C02BF844697
:105150000146002043F0B64308BFA3F18053A3F5F6
:105160000003BCFA8CF2083AA3EBC25310DB01FA3D
:1051700002FC634400FA02FCC2F12002BCF1004FC1
:1051800020FA02F243EB020008BF20F00100704752
:1051900002F1200201FA02FCC2F1200250EA4C00A6
:1051A00021FA02F243EB020008BF20EADC707047EC
:1051B0004FEA4002B2F1FE4F0FD34FF09E03B3EB24
:1051C00012620DD94FEA002343F0004310F0004F64
:1051D00023FA02F018BF404270474FF000007047BA
:1051E00012F1610F01D1420205D110F0004008BF59
:1051F0006FF0004070474FF000007047014B186897
:10520000704700BFB800002003460244934202D01A
:1052100003F8011BFAE77047034613F8012B002A35
:10522000FBD1181A0138704730B5141E05469BB0E3
:10523000184604DA8B232B604FF0FF301DE04FF44B
:105240000273ADF80C300CBF234604F1FF33029318
:1052500005934FF6FF7300910491ADF80E300246AE
:105260001E9B6946284600F073F8431CBCBF8B2385
:105270002B6014B1009B00221A701BB030BD0000DF
:1052800007B5009313460A46014603480068FFF736
:10529000CBFF03B05DF804FBB80000202DE9F04718
:1052A0008E6882469E420C46914698463ED88A8930
:1052B00012F4906F3AD02568096902236F1A656964
:1052C00005EB450595FBF3F57B1C43449D4238BF38
:1052D0001D4653050FD5294600F04AFB064698B1F6
:1052E0003A46216900F0D2FAA38923F4906343F08F
:1052F0008003A38113E02A4600F098FB064670B9AC
:105300002169504600F0E8FA0C23CAF80030A3895E
:105310004FF0FF3043F04003A381BDE8F0872661E2
:105320003E44266046466561ED1BA560464528BFA4
:10533000464649463246206800F0B3FAA36800208A
:105340009B1BA36023681E442660BDE8F087000015
:105350002DE9F04F9DB003938B8980461C060D46C6
:1053600016460DD50B695BB9402100F001FB2860A2
:10537000286118B90C23C8F80030CDE040236B61D8
:105380000023099320238DF82930DFF89CB13023C6
:105390008DF82A3037463C4614F8013B1BB9B7EB71
:1053A000060910D003E0252BF9D02746F3E74B463A
:1053B000324629464046FFF771FF013000F0A780D2
:1053C000099B4B4409933B78002B00F0A0800023FD
:1053D0004FF0FF3204930793059206938DF85330F4
:1053E0001A930126052221784E4800F041FA671CE5
:1053F000049B38B14B4A3C46801A06FA00F0184329
:105400000490EFE7D90644BF20228DF853201A07F5
:1054100044BF2B228DF8532022782A2A03D0079AE2
:1054200000210A200BE0039A111D12680391002A43
:1054300010DA524243F00200079204900BE0274634
:105440003B780134303B092B03D800FB02320121A9
:10545000F5E701B107923B782E2B1ED17B782A2BE2
:105460000AD1039B02371A1D1B680392002BB8BF99
:105470004FF0FF33059310E0002319460593781C85
:105480000A2407463A780130303A092A03D804FB47
:1054900001210123F5E703B1059103223978224860
:1054A00000F0E6F940B14023CBEB000003FA00F036
:1054B000049B013718430490397806221B487E1C50
:1054C0008DF8281000F0D4F988B1194B33B9039B3B
:1054D000073323F007030833039314E003AB00936F
:1054E0002A46144B04A94046AFF3008007E003AB03
:1054F00000932A460F4B04A9404600F093F8B0F100
:10550000FF3F824603D0099B5344099342E7AB898E
:105510005B0601D4099801E04FF0FF301DB0BDE8F3
:10552000F08F00BF787500087E750008827500084E
:10553000000000009D5200082DE9F04791461F46EB
:105540000A698B6806469342B8BF1346C9F8003013
:1055500091F843200C46DDF8208012B10133C9F8E0
:1055600000302368990642BFD9F800300233C9F8E9
:105570000030256815F0060510D104F1190A07E07E
:105580000123524639463046C04701301AD0013512
:10559000E368D9F800209B1A9D42F1DB94F8433070
:1055A0002268003318BF012392060FD5E11830207E
:1055B00081F843005A1C94F845102244023382F8C3
:1055C000431003E04FF0FF30BDE8F08704F14302E1
:1055D00039463046C0470130F4D02268D9F800502F
:1055E000E36802F00602042A08BF5D1B2269A36873
:1055F0000CBF25EAE57500259342C4BF9B1AED1840
:105600004FF000091A344D4509D00123224639468E
:105610003046C0470130D5D009F10109F3E7002039
:10562000BDE8F0872DE9F04317460A7E85B06E2A63
:10563000984606460C460C9B01F1430E00F0AE80E6
:1056400011D8632A22D009D8002A00F0BB80582A3A
:1056500040F0CA8081F84520834955E0642A1ED075
:10566000692A1CD0C0E0732A00F0B08009D86F2AE4
:105670002ED0702A40F0B8800A6842F020020A60FA
:105680003EE0752A24D0782A3AD0ADE01A6801F1BC
:105690004205111D1960136884F84230A8E02168A2
:1056A0001A6811F0800F02D0111D196008E011F086
:1056B000400F02F10401196002D0B2F9003000E09D
:1056C0001368002B3CDA2D225B4284F8432037E03C
:1056D00021681A6811F0800F02D0111D196007E0CF
:1056E00011F0400F02F10401196001D0138800E0AD
:1056F0001368227E5C496F2A14BF0A2208221BE02D
:1057000078225A4984F845202268186812F0800FE0
:1057100000F104051D6003D1550601D5038800E0A2
:105720000368D00744BF42F0200222601BB9226800
:1057300022F0200222601022002084F8430001E0C1
:1057400049490A226568002DA56008DB206820F021
:10575000040020602BB9002D7DD175460CE0002B94
:1057600079D07546B3FBF2F002FB1033CB5C05F841
:10577000013D03460028F5D1082A0BD12368DA073A
:1057800008D5236962689A42DEBF302305F8013CE0
:1057900005F1FF35C5EB0E0323612EE008681A689A
:1057A00010F0800F496903D0101D1860136808E0DD
:1057B00010F0400F02F104001860136801D0198046
:1057C00000E0196000232361754616E01A68111D78
:1057D0001960156800216268284600F049F808B190
:1057E000401B6060636804E004F1420584F84220D5
:1057F00001232361002384F84330CDF800803B4629
:1058000003AA21463046FFF797FE013002D14FF040
:10581000FF3026E023692A4639463046C04701302A
:10582000F5D023689B0710D5002504F1190907E07E
:1058300001234A4639463046C0470130E7D001359A
:10584000E368039A9B1A9D42F2DBE068039B98424F
:10585000B8BF184605E00B7804F1420584F84230E1
:105860008AE705B0BDE8F083897500089A750008DD
:1058700010B5C9B202449042034605D01C780130ED
:105880008C42F8D1184610BD002010BD10B5431E43
:105890000A44914204D011F8014B03F8014FF8E794
:1058A00010BD884210B501EB020301D8421E0BE087
:1058B0009842FBD28118D21AD34204D013F8014D7A
:1058C00001F8014DF8E710BD994204D011F8014BE1
:1058D00002F8014FF8E710BD38B50546002944D05D
:1058E00051F8043C0C1F002BB8BFE41800F0D4F8AA
:1058F0001E4A1368114613B96360146030E0A34276
:105900000DD92268A018834201BF18685B6812187D
:10591000226063600C6023E0A24203D813465A68F9
:10592000002AF9D118681918A1420BD12168014445
:1059300058188242196013D11068526801441960E6
:105940005A600DE002D90C232B6009E02168601831
:10595000824201BF106852680918216062605C6071
:105960002846BDE8384000F098B838BD60070020F0
:1059700070B5CD1C25F0030508350C2D38BF0C255E
:10598000002D064601DBA94202D90C23336046E014
:1059900000F082F8234B1C681A462146A1B10B681F
:1059A0005B1B0ED40B2B03D90B60CC18CD501EE023
:1059B0008C420BBF63684B681360636018BF0C4672
:1059C00015E00C464968E9E7174C23681BB93046D7
:1059D00000F052F820602946304600F04DF8431C94
:1059E00018D0C41C24F00304A0420DD12560304619
:1059F00000F053F804F10B00231D20F00700C31A38
:105A00000ED05A42E25070BD211A304600F034F8F0
:105A10000130EBD10C233360304600F03EF800201B
:105A200070BD00BF600700205C070020F8B5074686
:105A300015460E4621B91146BDE8F840FFF798BF5C
:105A40001AB9FFF749FF2846F8BD00F027F885424C
:105A50000ED929463846FFF78BFF044650B1314630
:105A60002A46FFF713FF31463846FFF735FF01E0BE
:105A70003046F8BD2046F8BD38B5064C0023054633
:105A800008462360FCF724F8431C02D1236803B1C5
:105A90002B6038BD640700207047704751F8040C34
:105AA0000028BEBF091851F8043CC01804387047DC
:105AB0002E2E2F73797374656D2F7372632F737429
:105AC0006D333266312D7374647065726970682F3E
:105AD0006D6973632E6300002E2E2F7379737465C6
